:020000040800F2
:100000000000022055250008E90C0008EB0C000850
:10001000ED0C0008EF0C0008F10C000800000000D7
:10002000000000000000000000000000F30C0008C9
:10003000F50C000800000000F70C0008F90C00089F
:10004000A5250008A5250008A5250008A525000868
:10005000A5250008A5250008A5250008A525000858
:10006000A5250008A5250008A5250008A525000848
:10007000A5250008A5250008A5250008A525000838
:10008000A5250008A5250008010D0008A5250008E4
:10009000A5250008A5250008A5250008110D0008C4
:1000A000A5250008A5250008A5250008A525000808
:1000B000A5250008A5250008A5250008A5250008F8
:1000C000A5250008A5250008A5250008A5250008E8
:1000D000A5250008A5250008A5250008A5250008D8
:1000E0002B0D0008A5250008A5250008A52500085A
:1000F000A5250008A5250008A5250008A5250008B8
:10010000A5250008A5250008A5250008A5250008A7
:10011000A5250008A5250008A5250008A525000897
:10012000A5250008A5250008A5250008A525000887
:10013000A5250008A5250008A5250008A525000877
:10014000A5250008A5250008A5250008A525000867
:10015000A5250008A5250008A5250008A525000857
:10016000A5250008A5250008A5250008A525000847
:10017000A5250008A5250008A52500080000000009
:08018000A5250008A5250008D3
:1001900010B5054C237833B9044B13B10448AFF3C1
:1001A00000800123237010BD7000002000000000BB
:1001B000182E000808B5034B1BB103490348AFF3E1
:1001C000008008BD0000000074000020182E000808
:1001D00053B94AB9002908BF00281CBF4FF0FF31AE
:1001E0004FF0FF3000F072B9ADF1080C6DE904CEAC
:1001F00000F006F8DDF804E0DDE9022304B0704702
:100200002DE9F047089E04468846002B4BD18A42D0
:10021000154667D9B2FA82F24AB1C2F1200701FA53
:1002200002F320FA07F7954047EA030894404FEAA3
:10023000154E230CB8FBFEF71FFA85FC0EFB178842
:1002400043EA084307FB0CF1994209D9EB1807F17F
:10025000FF3080F01B81994240F21881023F2B440D
:100260005B1AA4B2B3FBFEF00EFB103344EA034466
:1002700000FB0CFCA44509D92C1900F1FF3380F0D8
:100280000781A44540F2048102382C4440EA07402B
:10029000A4EB0C0400271EB1D4400023C6E90043A0
:1002A0003946BDE8F0878B4209D9002E00F0EB807B
:1002B0000027C6E9000138463946BDE8F087B3FAA1
:1002C00083F7002F47D18B4202D3824200F2FA809B
:1002D000841A61EB030301209846002EE0D0C6E9A2
:1002E0000048DDE702B9FFDEB2FA82F2002A40F0F0
:1002F0008F80491B4FEA154E1FFA85F80127B1FB85
:10030000FEFC230C0EFB1C1143EA014308FB0CF11D
:10031000994207D9EB180CF1FF3002D2994200F252
:10032000CD808446591AA3B2B1FBFEF00EFB101427
:1003300043EA044408FB00F8A04507D92C1900F152
:10034000FF3302D2A04500F2B6801846A4EB0804A1
:1003500040EA0C409FE7C7F1200CBB4022FA0CFE9C
:100360004EEA030E01FA07F420FA0CF521FA0CF319
:100370004FEA1E482543B3FBF8F92C0C08FB193350
:100380001FFA8EFA44EA034309FB0AF49C4202FA7C
:1003900007F200FA07F10BD91EEB030309F1FF3056
:1003A00080F087809C4240F28480A9F10209734466
:1003B0001B1BADB2B3FBF8F008FB103345EA034456
:1003C00000FB0AFAA24508D91EEB040400F1FF3332
:1003D0006BD2A24569D90238744440EA0940A0FBB7
:1003E0000289A4EB0A044C45C2464B4654D351D073
:1003F000002E69D0B1EB0A0564EB030404FA0CFC8F
:10040000FD40FC404CEA0505C6E90054002747E7DB
:10041000C2F1200320FA03F7954001FA02F021FA15
:1004200003F34FEA154E3843010CB3FBFEF71FFAF6
:1004300085F80EFB173341EA034107FB08F38B42B3
:1004400004FA02F407D9691807F1FF3C2FD28B4256
:100450002DD9023F2944CB1A81B2B3FBFEF00EFB2B
:10046000103341EA034100FB08F38B4207D96918B6
:1004700000F1FF3C17D28B4215D902382944C91A22
:1004800040EA07473BE73746304609E70746E7E6D5
:100490001846FBE64145ABD2B8EB020A69EB0E0207
:1004A00001381346A4E76046E9E7184695E7674632
:1004B000D1E781467CE702382C4447E7ACF1020CD7
:1004C0002B442FE7384608E73746E9E6704700BF78
:1004D000034613F8012B002AFBD1181A0138704784
:1004E00001F0FF01102A2BDB10F0070F08D010F8E5
:1004F000013B013A8B422DD010F0070F42B3F6D1E9
:10050000F0B441EA012141EA014122F007047FF001
:1005100000070023F0E80256083C85EA010586EA58
:10052000010685FA47F5A3FA87F586FA47F6A5FA94
:1005300087F68EB9EED1F0BC01F0FF0102F00702A0
:1005400032B110F8013B013A83EA010313B1F8D14B
:100550000020704701387047002D06BF354603382C
:10056000073815F0010F07D1013015F4807F02BF65
:10057000013015F4C03F0130F0BC0138704700BFB6
:1005800030B589B00024039404940594069407942C
:100590000094264B1A6B42F002021A631A6B02F0A7
:1005A00002020092009A01941A6B42F008021A6348
:1005B0001A6B02F008020192019A02941A6B42F03F
:1005C00004021A631B6B03F004030293029B184D91
:1005D00022464FF47041284601F0B0F84FF47043C2
:1005E0000393012304930594069403A9284600F07D
:1005F000C1FF4FF4346303930E4B0493022305931E
:1006000003A90D4800F0B6FF22462146172000F04E
:1006100059FF172000F08AFF22462146282000F0CB
:1006200051FF282000F082FF09B030BD00380240A1
:10063000000C0240000011100008024008B50848F4
:10064000084B03604FF4E133436000238360C360D1
:1006500003610C2242618361C36101F066FE08BD43
:10066000A00000200048004030B585B00023009372
:10067000019302930393114C114A22606360A360BB
:1006800023610125257684F820304FF08052E26204
:100690004FF0C062A262E360E56184F830306561CA
:1006A000204600F05FFC0923009301950323029389
:1006B0006946204600F02AFE05B030BDE00000206B
:1006C0000021014030B587B00024029403940494C3
:1006D000059400940194104D4FF080432B604FF42B
:1006E000C8636B60AC604CF25033EB602C61AC6162
:1006F000284601F007FC4FF48053029302A92846D4
:1007000001F025FC2023009301946946284601F05E
:100710008BFC07B030BD00BF2801002010B5044697
:10072000402809D0B4F5807F21D0B4F5007F39D0BE
:10073000B4F5006F51D010BD4FF48041344801F042
:1007400003F8344A137883F00403137013F0040F92
:1007500006D00A2307223049304801F015FEE1E7B0
:100760000A2308222E492D4801F00EFEDAE74FF445
:100770008051274800F0E8FF264A137883F00103F0
:10078000137013F0010F06D00A23092225492348CC
:1007900001F0FAFDC9E70A231A4623491F4801F070
:1007A000F3FDC2E74FF40051194800F0CDFF194A9C
:1007B000137883F00203137013F0020F06D00A239C
:1007C0001A461A49154801F0DFFDB1E70A230B224A
:1007D0001749124801F0D8FDAAE74FF400410C4830
:1007E00000F0B2FF0B4A137883F00803137013F084
:1007F000080F06D10A2309220E49084801F0C4FD5A
:1008000099E70A2308220C49044801F0BDFD92E74C
:10081000000C02408C000020482E0008A0000020A0
:10082000502E00085C2E0008682E0008742E000868
:10083000802E0008982E00088C2E000810B590B06D
:100840003B4C6421204600F0B8FB8DF803002046A5
:1008500000F0B0FC00EB8000C0EB0010C30903EB1C
:100860008303C3F5FC531033DB08324AA2FB0312A7
:10087000C2F3CF029BB202EB8200410089B25B1A45
:100880009BB22D4901A801F0C1FE01A8FFF720FE8F
:100890000A2382B201A9294801F076FD284B1B7872
:1008A00013F0080F28D00A2308222649234801F014
:1008B0006BFD234B1B7813F0040F24D00A2307226F
:1008C00021491E4801F060FD1D4B1B7813F0020FFB
:1008D00020D00A231A461D49184801F055FD184B2F
:1008E0001B7813F0010F1CD10A231A46184913482C
:1008F00001F04AFD10B010BD0A23092215490F4826
:1009000001F042FDD5E70A23082213490B4801F004
:100910003BFDD9E70A230B221049084801F034FDBA
:10092000DDE70A2309220E49044801F02DFDE1E725
:10093000E0000020CDCCCCCCA42E0008A0000020EC
:100940008C000020B42E0008CC2E0008E02E0008F9
:10095000682E0008C02E0008D42E0008EC2E0008D7
:100960005C2E000830B595B03022002108A801F0B7
:1009700045FE00240394049405940694079401947E
:10098000194B1A6C42F080521A641B6C03F08053AE
:100990000193019B0294154B1A6842F480421A603D
:1009A0001B6803F480430293029B022508950123F0
:1009B0000B9310230C930E950F9408231093402350
:1009C000119312950423139308A800F0D5FE0F236A
:1009D000039304959023059306940794214603A856
:1009E00001F014F915B030BD00380240007000402D
:1009F00000B583B000F0F0F9FFF7B4FFFFF7C0FDDA
:100A0000FFF71CFEFFF730FEFFF75CFE554801F0D4
:100A100002FA554800F02CFB71E04FF400415348B6
:100A200000F092FE524A137883F00803137013F01B
:100A3000080F06D00A2308224E494F4801F0A4FCB3
:100A40005DE00A2309224D494B4801F09DFC56E028
:100A50004FF48041454800F077FE454A137883F013
:100A60000403137013F0040F06D00A23072244492D
:100A7000414801F089FC42E00A23082241493E48EE
:100A800001F082FC3BE04FF40051384800F05CFE7E
:100A9000374A137883F00203137013F0020F06D065
:100AA0000A231A463849344801F06EFC27E00A232D
:100AB0000B223649304801F067FC20E04FF48051AA
:100AC0002A4800F041FE2A4A137883F0010313708C
:100AD00013F0010F06D00A2309222D49264801F000
:100AE00053FC0CE00A231A462A49234801F04CFC27
:100AF00005E00A23052228491F4801F045FC0A2386
:100B0000012201A91C4801F0B0FC0028F7D19DF892
:100B10000430623B102BECD801A252F823F000BF46
:100B20001B0A0008F30A0008F30A0008F30A000889
:100B3000F30A0008BD0A0008F30A0008F30A0008D7
:100B4000F30A0008F30A0008F30A0008F30A000891
:100B5000F30A0008870A0008F30A0008F30A0008ED
:100B6000510A000828010020E0000020000C02408B
:100B70008C0000208C2E0008A0000020982E000879
:100B8000482E0008502E0008742E0008802E000801
:100B90005C2E0008682E0008F82E000882B00021A4
:100BA00000910B4B5A6C42F480425A645A6C02F426
:100BB00080420092009A01911A6C42F080521A64AD
:100BC0001B6C03F080530193019B02B0704700BF80
:100BD0000038024010B588B00023039304930593B6
:100BE000069307930268164B9A4201D008B010BDD5
:100BF00000240194134B5A6C42F400725A645A6CEC
:100C000002F400720192019A02941A6B42F00202FD
:100C10001A631B6B03F002030293029B02230393EC
:100C20000323049303A9084800F0A4FC22462146AC
:100C3000122000F047FC122000F078FCD6E700BF3D
:100C40000021014000380240000402400368B3F173
:100C5000804F00D0704782B000230193054B1A6C7F
:100C600042F001021A641B6C03F001030193019B23
:100C700002B070470038024000B589B000230393EA
:100C800004930593069307930268154B9A4202D08A
:100C900009B05DF804FB0021019103F5F8331A6CEB
:100CA00042F480221A641A6C02F480220192019AA2
:100CB00002911A6B42F008021A631B6B03F00803DF
:100CC0000293029B4FF44073039302230493032384
:100CD00006930723079303A9024800F04BFCD7E7CC
:100CE00000480040000C02407047FEE7FEE7FEE7C8
:100CF000FEE770477047704708B500F087F808BDF9
:100D000008B5024800F05BFA08BD00BFE000002013
:100D100008B5402000F022FD4FF4807000F01EFD69
:100D20004FF4007000F01AFD08BD08B54FF40060E4
:100D300000F014FD08BD000008B503460B4A126818
:100D400042B10A4A106803446A46934206D8074AE9
:100D5000136008BD054A06491160F2E701F024FC62
:100D60000C2303604FF0FF30F3E700BF900000203A
:100D700070010020054BD3F8882042F47002C3F8BC
:100D800088204FF000629A60704700BF00ED00E0DD
:100D900010B504460E4B18784FF47A73B3FBF0F39A
:100DA0000C4A1068B0FBF3F000F0CEFB68B90F2CD2
:100DB00001D901200AE0002221464FF0FF3000F067
:100DC00081FB034B5C60002000E0012010BD00BFF0
:100DD000040000200000002008B50B4B1A6842F404
:100DE00000721A601A6842F480621A601A6842F44B
:100DF00080721A60032000F053FB0020FFF7C8FF49
:100E0000FFF7CCFE002008BD003C0240034A1168F9
:100E1000034B1B780B441360704700BF6801002030
:100E200004000020014B1868704700BF68010020D3
:100E30004A4B5A6822F440325A605A6841680A4361
:100E40005A600268536823F48073536002685368E1
:100E5000016943EA012353600268536823F0407339
:100E600053600268536881680B435360026893685B
:100E700023F40063936002689368C1680B43936036
:100E8000826A374B9A424BD00268936823F07063B2
:100E9000936002689368816A0B4393600268936869
:100EA00023F04053936002689368C16A0B439360D8
:100EB0000268936823F00203936002689368017EDE
:100EC00043EA4103936090F82030002B33D102684D
:100ED000536823F4006353600268D36A23F47003F9
:100EE000D3620168CB6AC269013A43EA0253CB621A
:100EF0000268936823F4007393600268936890F823
:100F0000301043EA412393600268936823F48063BE
:100F1000936002689368416943EA81239360704754
:100F20000268936823F0706393600268936823F00B
:100F300040539360BCE70268536843F40063536016
:100F40000268536823F46043536001684B68426A47
:100F5000013A43EA42334B60BEE700BF0023014041
:100F60000100000F38B310B50446036C43B1236C85
:100F700013F0100F0BD00120002384F83C3010BD7B
:100F8000FFF728FE0023636484F83C30EFE7236C0E
:100F900023F4885323F0020343F002032364204622
:100FA000FFF746FF00206064236C23F0030343F047
:100FB00001032364E0E70120704703689A6812F494
:100FC000806F03D09B6813F4807F1CD170B50D46F1
:100FD0000446FFF727FF064623681A6812F0020F3F
:100FE0001AD1B5F1FF3FF7D025B1FFF71BFF801BEA
:100FF000A842F1D9236C43F004032364002384F84E
:101000003C3003202DE0036C43F0200303640023F5
:1010100080F83C30012070476FF012021A60236C98
:1010200043F40073236423689A6812F0405F17D179
:10103000227EBAB9DA6A12F4700F03D09B6813F4F7
:10104000806F11D1236C23F480732364236C13F419
:10105000805F0BD1236C43F001032364002000E088
:10106000002070BD0020FCE70020FAE70020F8E730
:1010700082B00023019390F83C30012B00F0858072
:10108000012380F83C3003689A6812F0010F13D1F5
:101090009A6842F001029A60414B1B68414AA2FBE8
:1010A00003239B0C03EB4303019302E0019B013BF1
:1010B0000193019B002BF9D10268936813F0010F93
:1010C00065D0036C23F4E06323F0010343F48073E1
:1010D0000364536813F4806F05D0036C23F440530A
:1010E00043F480530364036C13F4805F22D0436C99
:1010F00023F006034364002380F83C306FF02203A2
:1011000013600268536843F0806343F02003536028
:10111000254B5B6813F01F0F27D10368234A9342C6
:1011200019D002F58072934207D0214A93420BD026
:1011300000202DE000234364DDE702F500725268D1
:1011400012F01F0F07D0F0E702F58072526802F02C
:101150001F020F2A1ED89A6812F0405F1CD19A68AD
:1011600042F080429A60002012E003680F4A9342E6
:1011700001D000200CE09A6812F0405F0ED19A680E
:1011800042F080429A60002002E0022000E000204D
:1011900002B070470020FBE70020F9E70020F7E7E6
:1011A0000000002083DE1B4300230140002001409B
:1011B000002201400368D86C70477047704738B50B
:1011C000044602681168536811F0020F2FD003F033
:1011D000200363B3036C13F0100F03D1036C43F4CB
:1011E00000730364936813F0405F19D1237EBBB989
:1011F000D36A13F4700F03D0936813F4806F0FD188
:10120000536823F020035360236C23F4807323641A
:10121000236C13F4805F03D1236C43F00103236438
:101220002046FFF70BFB23686FF012021A60236859
:1012300019685A6802F0800211F0040F36D0002AB3
:1012400034D0226C12F0100F03D1226C42F4005201
:1012500022649A6812F4401F21D19A6B12F4401F45
:1012600003D09A6812F4806F19D15A6812F4806F13
:1012700015D19A6812F0405F11D1227E7AB95A686E
:1012800022F080025A60236C23F480532364236C81
:1012900013F4807F03D1236C43F0010323642046C1
:1012A00000F0FCF823686FF00C021A6022681168E5
:1012B000536803F0400311F0010F04D01BB1136811
:1012C00013F0010F09D122681168536803F080639D
:1012D00011F0200F00D063B938BD236C43F4803384
:1012E00023642046FFF769FF23686FF001021A604C
:1012F000E9E7636C43F0020363646FF02005156057
:101300002046FFF75BFF23681D60E5E730B482B03D
:101310000023019390F83C30012B00F0B7800123AB
:1013200080F83C300B68092B3ED90568EA689BB20F
:1013300003EB43031E3B072404FA03F322EA0303EF
:10134000EB600568EA688C680B8803EB43031E3B7F
:1013500004FA03F31343EB604B68062B3AD8056895
:101360006A6B03EB8303053B1F2404FA03F322EAB1
:1013700003036B6305686A6B4B6803EB8303053BF0
:101380000C8804FA03F313436B630268404B9A42E0
:1013900050D002683E4B9A4255D0002380F83C3032
:1013A000184602B030BC704705682A699BB203EB4F
:1013B0004303072404FA03F322EA03032B610568BD
:1013C0002A698C680B8803EB430304FA03F3134385
:1013D0002B61C1E70C2B16D805682A6B03EB83033E
:1013E000233B1F2404FA03F322EA03032B6305685B
:1013F0002A6B4B6803EB8303233B0C8804FA03F34B
:1014000013432B63C1E70568EA6A03EB8303413B9F
:101410001F2404FA03F322EA0303EB620568EA6A75
:101420004B6803EB8303413B0C8804FA03F313433B
:10143000EB62AAE70B68122BABD1164A536843F450
:1014400080035360A5E70B68103B012BA5D8114A18
:10145000536843F4000353600B68102B9DD10E4B6F
:101460001B6802F1467202F52E3202F28332A2FBB1
:1014700003239B0C03EB83035A00019202E0019BC0
:10148000013B0193019B002BF9D186E7022088E7FD
:1014900000200140002301400000002070470000B0
:1014A000074AD36823F4E0631B041B0C000200F41A
:1014B000E060184340F0BF6040F40030D0607047F7
:1014C00000ED00E030B4174BDB68C3F30223C3F137
:1014D0000704042C28BF04241D1D062D18D9033B26
:1014E0004FF0FF3505FA04F421EA0401994005FAAA
:1014F00003F322EA0303194300280BDB0901C9B2F5
:1015000000F1604000F5614080F8001330BC704786
:101510000023E5E700F00F000901C9B2024B19549E
:10152000F4E700BF00ED00E014ED00E0002807DB69
:1015300000F01F02400901239340024A42F8203084
:10154000704700BF00E100E00138B0F1807F0AD2AF
:10155000064B5860064AF02182F82310002098605C
:1015600007221A6070470120704700BF10E000E0BA
:1015700000ED00E000230F2B00F2D780F0B583B020
:1015800039E0072200E00022AA403A430234674DC6
:1015900045F82420664A1468F24302EA04054F68BD
:1015A00017F4803F01D046EA0405614C2560646869
:1015B00002EA04054F6817F4003F01D046EA04052B
:1015C0005B4C6560A46802EA04054F6817F4801F4D
:1015D00001D046EA0405564CA560E46822404D68F7
:1015E00015F4001F01D046EA0402514CE2600133B9
:1015F0000F2B00F2988001229A400C6804EA020640
:10160000B242F4D14C68651E012D03D9112C01D0D2
:10161000122C12D185685F000324BC4025EA040522
:10162000CC68BC402C438460456825EA02054C68C0
:10163000C4F300129A402A434260C4685F00032248
:10164000BA40D24314408D68BD402543C5604C6804
:10165000022C01D0122C13D1DD08083550F825E0FA
:1016600003F007044FEA840C0F2404FA0CF42EEA6A
:10167000040E0C6904FA0CF444EA0E0440F8254008
:10168000046822404C6804F00304BC40224302601A
:101690004A6812F0805FAAD000220192254A546C59
:1016A00044F480445464526C02F480420192019AE2
:1016B0009C08A51C1D4A52F8257003F003029500F2
:1016C0000F22AA4027EA02071B4A90423FF45BAF71
:1016D00002F5806290421AD002F58062904218D0E2
:1016E00002F58062904216D002F58062904214D0DA
:1016F00002F58062904212D002F58062904210D0D2
:1017000002F5806290423FF43CAF08223CE70122A0
:101710003AE7022238E7032236E7042234E70522BB
:1017200032E7062230E703B0F0BD704700380140D1
:10173000003C0140003802400000024012B9090498
:101740008161704781617047436931EA030301D0C9
:1017500081617047090481617047000008B5054B3D
:101760005B69034200D108BD024B5861FEF7D6FF0A
:10177000F9E700BF003C0140002800F0E48170B5AB
:1017800082B00446036813F0010F3BD0A74B9B685F
:1017900003F00C03042B2CD0A44B9B6803F00C0328
:1017A000082B21D06368B3F5803F4FD0B3F5A02F4D
:1017B00052D09E4B1A6822F480321A601A6822F4C2
:1017C00080221A606368002B50D0FFF72BFB054680
:1017D000964B1B6813F4003F14D1FFF723FB401B0B
:1017E0006428F5D90320B3E1904B5B6813F4800FB4
:1017F000D8D08E4B1B6813F4003F03D06368002BD6
:1018000000F0A381236813F0020F55D0874B9B682B
:1018100013F00C0F3ED0854B9B6803F00C03082B94
:1018200033D0E368002B68D0814B01221A60FFF7A8
:10183000F9FA05467D4B1B6813F0020F54D1FFF7F0
:10184000F1FA401B0228F5D9032081E1774A136899
:1018500043F480331360B5E7744B1A6842F4802276
:101860001A601A6842F480321A60ABE7FFF7DAFABE
:1018700005466E4B1B6813F4003FC3D0FFF7D2FA46
:10188000401B6428F5D9032062E1684B5B6813F4C0
:10189000800FC6D1654B1B6813F0020F04D0E368BC
:1018A000012B01D0012053E1604A136823F0F803B3
:1018B000216943EAC1031360236813F0080F40D085
:1018C000636963B35B4B01221A60FFF7ABFA05460D
:1018D000564B5B6F13F0020F33D1FFF7A3FA401B97
:1018E0000228F5D9032033E1504A136823F0F803A6
:1018F000216943EAC1031360DEE74D4B00221A6001
:10190000FFF790FA0546494B1B6813F0020FD3D03E
:10191000FFF788FA401B0228F5D9032018E1454B50
:1019200000221A60FFF77EFA0546404B5B6F13F00A
:10193000020F06D0FFF776FA401B0228F5D90320E4
:1019400006E1236813F0040F79D0384B1B6C13F0B9
:10195000805F33D100230193344B1A6C42F08052E4
:101960001A641B6C03F080530193019B0125324BD9
:101970001B6813F4807F23D0A368012B34D0052B80
:1019800038D02A4B1A6F22F001021A671A6F22F020
:1019900004021A67A368002B36D0FFF743FA064605
:1019A000224B1B6F13F0020F48D1FFF73BFA801B4D
:1019B00041F288339842F3D90320C9E00025D6E7E5
:1019C0001D4A136843F480731360FFF72BFA064631
:1019D000194B1B6813F4807FCED1FFF723FA801BCD
:1019E0000228F5D90320B3E0104A136F43F0010336
:1019F0001367CFE70D4B1A6F42F004021A671A6F94
:101A000042F001021A67C5E7FFF70CFA0646074BDA
:101A10001B6F13F0020F11D0FFF704FA801B41F285
:101A200088339842F3D9032092E000BF0038024087
:101A300000004742800E474200700040EDB9A369A4
:101A4000002B00F08480454A926802F00C02082ABC
:101A500051D0022B17D0424B00221A60FFF7E2F957
:101A600004463E4B1B6813F0007F42D0FFF7DAF9C3
:101A7000001B0228F5D903206AE0384A136C23F0D2
:101A800080531364DBE7364B00221A60FFF7CAF974
:101A90000546324B1B6813F0007F06D0FFF7C2F9F2
:101AA000401B0228F5D9032052E0E369226A134360
:101AB000626A43EA8213A26A5208013A43EA024385
:101AC000E26A43EA0263254A5360254B01221A6009
:101AD000FFF7A8F90446214B1B6813F0007F06D1DD
:101AE000FFF7A0F9001B0228F5D9032030E0002001
:101AF0002EE000202CE0012B2CD0184B5B6803F467
:101B00008001E269914201D0012021E003F03F020F
:101B1000216A8A4201D001201AE0616A47F6C07248
:101B20001A408A4201D0012012E003F44032A16A37
:101B30008A4201D001200BE003F07063E26A934215
:101B40000AD0012004E001207047012000E00020BD
:101B500002B070BD0120FBE70020F9E70038024029
:101B600060004742264B9B6803F00C03042B44D0D3
:101B7000082B01D0234870472DE9F04B204B5A68C1
:101B800002F03F025B6813F4800F13D01C4B5968BE
:101B9000C1F3881100231C48A1FB0001FEF718FBCC
:101BA000174B5B68C3F3014301335B00B0FBF3F0F9
:101BB000BDE8F08B124B5B68C3F388131E46002709
:101BC0005C010025E41A65EB0705A90141EA94616F
:101BD000A001001B61EB0501CB0043EA5073C40078
:101BE000A01943EB07018B0243EA9053840220467D
:101BF00019460023FEF7ECFAD2E70348704700BF0E
:101C0000003802400024F40040787D01002800F0F4
:101C10009E8070B50446504B1B6803F00F038B4247
:101C200009D2CBB24C4A1370136803F00F038B42F6
:101C300001D0012070BD236813F0020F17D013F0FC
:101C4000040F04D0454A936843F4E053936023683B
:101C500013F0080F04D0414A936843F46043936043
:101C60003E4A936823F0F003A068034393600D4657
:101C7000236813F0010F32D06368012B21D09A1E24
:101C8000012A25D9354A126812F0020F61D0334972
:101C90008A6822F0030213438B60FFF7C3F80646FD
:101CA0002E4B9B6803F00C036268B3EB820F16D0D7
:101CB000FFF7B8F8801B41F288339842F0D903202F
:101CC000B8E7264A126812F4003FE0D10120B1E7DC
:101CD000224A126812F0007FD9D10120AAE71E4BD8
:101CE0001B6803F00F03AB4209D9EAB21A4B1A7012
:101CF0001B6803F00F03AB4201D001209AE7236871
:101D000013F0040F06D0154A936823F4E053E168FA
:101D10000B439360236813F0080F07D00F4A9368B2
:101D200023F46043216943EAC1039360FFF71AFF7C
:101D30000A4B9B68C3F30313094AD35CD840094B91
:101D40001860094B1868FFF723F8002072E701209C
:101D5000704701206EE700BF003C0240003802409F
:101D6000302E00080000002008000020014B1868F9
:101D7000704700BF0000002008B5FFF7F7FF044BD5
:101D80009B68C3F38223034AD35CD84008BD00BFDD
:101D900000380240402E000808B5FFF7E7FF044B6B
:101DA0009B68C3F34233034AD35CD84008BD00BFED
:101DB00000380240402E000810B4036A046A24F080
:101DC00001040462846924F0F00444EA021223F05E
:101DD0000A030B43826103625DF8044B704710B441
:101DE000036A23F0100303628469036A24F47044D5
:101DF00044EA023223F0A00343EA01138261036242
:101E00005DF8044B7047836823F07003194341F079
:101E1000070181607047022380F83D3002689368B3
:101E200003F00703062B03D0136843F0010313608C
:101E3000012380F83D300020704700000368304ADD
:101E4000904212D0B0F1804F0FD0A2F57C42904268
:101E50000BD002F58062904207D002F5806290427A
:101E600003D002F57842904203D123F070034A6810
:101E70001343234A90422AD0B0F1804F27D0A2F5D5
:101E80007C42904223D002F5806290421FD002F53E
:101E9000806290421BD002F57842904217D002F542
:101EA0007052904213D002F5806290420FD002F53A
:101EB000806290420BD0A2F59832904207D002F592
:101EC0008062904203D002F58062904203D123F4F5
:101ED0004073CA68134323F080034A6913430360C5
:101EE0008B68C3620B688362054B984203D003F58D
:101EF0008063984201D10B690363012343617047FA
:101F000000000140A8B110B5044690F83D305BB127
:101F1000022384F83D30211D2068FFF78FFF012345
:101F200084F83D30002010BD80F83C30FEF78EFE76
:101F3000EEE70120704710B4846824F47F4442EA3D
:101F400003230B43234383605DF8044B704790F8F1
:101F50003C30012B66D010B50446012380F83C309C
:101F6000022380F83D300268936823F47F4323F016
:101F7000770393600B68402B4AD013D9602B3DD078
:101F80001ED9702B28D0B3F5005F30D1CB684A68DA
:101F900089680068FFF7CFFF2268936843F48043A5
:101FA000936024E0102B06D004D9202B03D0302BD3
:101FB00001D01CE0DBB919462068FFF724FF16E0CA
:101FC000502B14D1CA6849680068FFF7F5FE50210C
:101FD0002068FFF718FF0AE0CB684A688968006844
:101FE000FFF7A9FF2268936843F07703936001230A
:101FF00084F83D30002084F83C0010BDCA68496870
:102000000068FFF7ECFE60212068FFF7FCFEEEE7BA
:10201000CA6849680068FFF7CFFE40212068FFF7D3
:10202000F2FEE4E70220704790F83C30012B3BD0F1
:1020300030B4012380F83C30022380F83D3003683F
:102040005C689D6824F070040A6822435A60036843
:10205000164A93421AD0B3F1804F17D0A2F57C42B2
:10206000934213D002F5806293420FD002F5806252
:1020700093420BD002F57842934207D002F570529A
:10208000934203D0A2F59432934204D125F0800507
:102090004A6815439D60012380F83D30002380F895
:1020A0003C30184630BC70470220704700000140A9
:1020B0002DE9F04B04460268136923F44053C168CC
:1020C0000B43136183680269134342691343C26976
:1020D0001A430168CB6823F4164323F00C0313431F
:1020E000CB600268536923F4407381690B435361E9
:1020F000C369B3F5004F3BD00368714A934200F0C7
:10210000AB8002F58062934200F0A680FFF734FEB8
:102110004FF00009061849EB090716EB000B47EBD7
:10212000090C4FEACC0343EA5B734FEACB029346B8
:102130009C4663689A009B0F10EB0B0049EB0C0167
:10214000FEF746F85F4DA5FB00325109642202FB01
:10215000110213013233A5FB03235B0903F0F002E4
:1021600002EB011203F00F03216813448B60A4E01B
:102170000368534A934239D002F58062934235D0C6
:10218000FFF7FAFD83464FF0000C06184CEB0C07E6
:1021900016EB000847EB0C094FEAC90343EA5873F2
:1021A0004FEAC8029046994662680021921841EBB6
:1021B00001031BEB08004CEB0901FEF709F8414D48
:1021C000A5FB00325109642202FB1102D300323315
:1021D000A5FB03235B095A0002F4F87202EB01121B
:1021E00003F00703216813448B6066E0FFF7D4FD1A
:1021F00080464FF00009061849EB090716EB000B63
:1022000047EB090C4FEACC0343EA5B734FEACB027E
:1022100093469C4662680021921841EB010318EB3B
:102220000B0049EB0C01FDF7D3FF264DA5FB003257
:102230005109642202FB1102D3003233A5FB0323B0
:102240005B095A0002F4F87202EB011203F0070373
:10225000216813448B6030E0FFF79EFD4FF00009CA
:10226000061849EB090716EB000B47EB090C4FEA80
:10227000CC0343EA5B734FEACB0293469C46636808
:102280009A009B0F10EB0B0049EB0C01FDF7A0FF30
:102290000C4DA5FB00325109642202FB110213010F
:1022A0003233A5FB03235B0903F0F00202EB0112BA
:1022B00003F00F03216813448B60BDE8F08B00BF6F
:1022C000001001401F85EB512DE9F04105460F46F6
:1022D00016469846069C2B681B6837EA03030CBF1A
:1022E00001230023B3421DD1B4F1FF3FF3D02CB141
:1022F000FEF798FDA0EB0800A042ECD92A68D3684D
:1023000023F4D073D3602A68536923F00103536127
:10231000202385F8393085F83A30002385F83830A5
:10232000032000E00020BDE8F08158B310B504465A
:1023300090F839300BB3242384F839302268D368FD
:1023400023F40053D3602046FFF7B2FE22681369DE
:1023500023F4904313612268536923F02A035361E5
:102360002268D36843F40053D3600020E063202345
:1023700084F8393084F83A3010BD80F83830FEF7F0
:102380007BFCD8E7012070472DE9F04383B01E465F
:1023900090F83930DBB2202B56D104460D469046DA
:1023A000002956D0002A56D090F83830012B54D04E
:1023B000012380F838304FF00009C0F83C90212309
:1023C00080F83930FEF72EFD0746A4F82480A4F8E3
:1023D000268084F8389010E000963B460022802149
:1023E0002046FFF771FF002839D12B882268C3F3FC
:1023F000080353602369C3B90235E38C9BB2B3B1C0
:10240000E38C013B9BB2E384A368B3F5805FE3D028
:1024100000963B46002280212046FFF755FF00BB77
:102420002A7823685A600135E7E70135E5E7009629
:102430003B46002240212046FFF746FF034690B965
:10244000202284F8392000E00223184603B0BDE8BA
:10245000F0830123F9E70123F7E70223F5E70323DC
:10246000F3E70323F1E70323EFE72DE9F04383B01C
:102470001E4690F83A30DBB2202B5CD104460D4664
:10248000904600295BD0002A5BD090F83830012BB1
:1024900059D0012380F838304FF00009C0F83C9043
:1024A000222380F83A30FEF7BDFC0746A4F82C80C2
:1024B000A4F82E8084F838901DE000963B46002258
:1024C00020212046FFF700FF00283ED1236933B9C1
:1024D00023685B68C3F3080325F8023B0BE023681D
:1024E0005B68DBB225F8013B05E023685B6803F01D
:1024F0007F032B700135E38D9BB2BBB1E38D013BB4
:102500009BB2E385A368B3F5805FD6D000963B46C7
:10251000002220212046FFF7D7FEC0B92369002BF7
:10252000E3D123685B682B700135E4E7202384F84E
:102530003A30002000E0022003B0BDE8F083012023
:10254000FAE70120F8E70220F6E70320F4E703208A
:10255000F2E70000DFF834D0002103E00C4B5B58B9
:10256000435004310B480C4B42189A42F6D30B4AA5
:1025700002E0002342F8043B094B9A42F9D3FEF7EC
:10258000F9FB00F017F8FEF733FA7047000002205D
:10259000442F000800000020700000207000002080
:1025A00070010020FEE70000014B1868704700BF73
:1025B0000C00002070B50D4E0D4CA41BA41000257E
:1025C000A54209D10B4E0C4C00F026FCA41BA41014
:1025D0000025A54205D170BD56F825309847013534
:1025E000EEE756F8253098470135F2E73C2F000812
:1025F0003C2F00083C2F0008402F000802440346EF
:10260000934200D1704703F8011BF9E70EB400B5FF
:102610009CB01DAB029006906FF0004109480791F5
:102620000491094953F8042B05910068019302A90C
:1026300000F066F8029B00221A701CB05DF804EBF3
:1026400003B070470C0000200802FFFF2DE9F0479F
:102650008E689E4282460C469046994637D88A89B3
:1026600012F4906F31D0256809696F1A65690223E9
:1026700005EB450595FBF3F509F101033B449D424C
:1026800038BF1D46530530D5294600F02BFB0646C2
:1026900050B90C23CAF80030A38943F04003A3814A
:1026A0004FF0FF30BDE8F0873A46216900F0A8FA04
:1026B000A38923F4906343F08003A38126616561BD
:1026C0003E44ED1B2660A5604E464E4500D94E4661
:1026D00032464146206800F09EFAA3689B1BA36027
:1026E00023681E4426600020DCE72A4600F054FBE5
:1026F00006460028E2D12169504600F0A5FAC8E755
:102700002DE9F04F1D468B891F069DB080460C4673
:1027100016460FD50B696BB9402100F0E3FA206033
:10272000206128B90C23C8F800304FF0FF30C8E012
:10273000402363610023099320238DF8293030233F
:102740008DF82A3003954FF0010B37463D4615F8BA
:10275000013B0BB1252B3ED1B7EB060A0BD05346FC
:10276000324621464046FFF771FF013000F0A48059
:10277000099B534409933B78002B00F09D80002374
:102780004FF0FF32CDE90523049307938DF85330C2
:102790001A932F46052217F8011B5048FDF7A0FE9B
:1027A000049BD0B9D90644BF20228DF853201A07C4
:1027B00044BF2B228DF853202A782A2A15D0079A55
:1027C0002F4600200A25394611F8013B303B092BE2
:1027D0004DD9B8B10FE02F46B8E7404A801A0BFA3E
:1027E00000F0184304903D46D3E7039A111D126888
:1027F0000391002A01DB079204E0524243F00203F6
:10280000079204933B782E2B0CD17B782A2B33D163
:10281000039B1A1D1B680392002BB8BF4FF0FF33B8
:10282000023705932E4D397803222846FDF758FECE
:1028300038B14023401B03FA00F0049B03430137E7
:102840000493397827488DF8281006227E1CFDF75E
:1028500047FE002838D0244B13BB039B073323F0DB
:10286000070308330393099B4B4409936DE705FB6A
:10287000023201200F46A6E70023013705931946CF
:102880000A25384610F8012B303A092A03D9002BC3
:10289000C8D00591C6E705FB012101230746F0E7F3
:1028A00003AB00932246114B04A94046AFF30080CE
:1028B000B0F1FF3F8146D6D1A3895B063FF535AF26
:1028C00009981DB0BDE8F08F03AB00932246074B7B
:1028D00004A9404600F082F8EAE700BF002F000894
:1028E000062F00080A2F0008000000004D260008EF
:1028F0002DE9F04791461F468A680B69DDF8208074
:102900009342B8BF1346C9F8003091F843200646F9
:102910000C4612B10133C9F800302368990642BF52
:10292000D9F800300233C9F80030256815F00605E3
:1029300007D104F1190AE368D9F800209B1AAB42C9
:1029400028DC94F843302268003318BF0123920634
:102950002DD404F1430239463046C047013020D01F
:102960002368E568D9F8002003F00603042B08BFAC
:10297000AD1AA36822690CBF25EAE57500259342CC
:10298000C4BF9B1AED184FF000091A344D451AD1F7
:10299000002008E00123524639463046C047013046
:1029A00003D14FF0FF30BDE8F0870135C3E7E118F0
:1029B0005A1C302081F84300224494F8451082F8D4
:1029C00043100233C5E70123224639463046C0474B
:1029D0000130E6D009F10109D8E700002DE9F04304
:1029E00001F1430C0C46097E85B06E291746064658
:1029F00098460C9A00F0B38022D8632936D00AD8C2
:102A0000002900F0B980582900F0838004F14205C4
:102A100084F8421032E0642901D06929F6D1206897
:102A20001368050603F104012AD51B681160002B09
:102A300003DA2D225B4284F843206F480A2239E0F2
:102A4000732900F09D8008D86F2920D07029DDD12E
:102A5000236843F02003236003E0752917D0782909
:102A6000D4D1782384F84530644855E01368191DA3
:102A70001B68116004F1420584F8423001238CE0A8
:102A80001B68116010F0400F18BF1BB2CFE713682E
:102A90002568181D1060280601D51B6802E068062D
:102AA000FBD51B8854486F2914BF0A220822002135
:102AB00084F843106568A560002DC0F295802168F8
:102AC00021F004012160002B3DD1002D40F08E80CB
:102AD0006546082A0BD12368DB0708D5236962689D
:102AE0009A42DEBF302305F8013C05F1FF35ACEB1F
:102AF00005032361CDF800803B4603AA21463046FA
:102B0000FFF7F6FE01304DD14FF0FF3005B0BDE8C4
:102B1000F083394884F84510136821681D1D1B682F
:102B200015600A060BD5CA0744BF41F02001216099
:102B30001BB9226822F0200222601022B7E74D065E
:102B400048BF9BB2EFE76546B3FBF2F102FB1133DE
:102B5000C35C05F8013D0B460029F5D1B9E71368C0
:102B600025686169181D106028061B6801D5196069
:102B700002E06A06FBD51980002323616546B9E7A8
:102B80001368191D11601D68626800212846FDF751
:102B9000A7FC08B1401B606063682361002384F8D0
:102BA0004330A7E723692A4639463046C0470130FB
:102BB000AAD023689B0713D4E068039B9842B8BF50
:102BC0001846A3E701234A4639463046C04701303C
:102BD0009AD00135E368039A9B1AAB42F2DCEBE72B
:102BE000002504F11909F5E7002BACD1037884F82E
:102BF000423004F142056CE7112F0008222F000833
:102C000010B5431E0A44914200D110BD11F8014B8A
:102C100003F8014FF7E7884210B501EB020307D82C
:102C2000421E99420AD011F8014B02F8014FF8E711
:102C30008342F5D98118D21AD34200D110BD13F8BE
:102C4000014D01F8014DF7E738B50546002945D09B
:102C500051F8043C0C1F002BB8BFE41800F0D2F868
:102C60001F4A1368104633B9636014602846BDE8F4
:102C7000384000F0C8B8A3420CD9216862189342CA
:102C800004BF1A685B68636004BF52182260046066
:102C9000ECE713465A680AB1A242FAD919685818E3
:102CA000A0420BD120680144581882421960DDD13E
:102CB000106852685A6001441960D7E702D90C23A2
:102CC0002B60D3E7206821188A4204BF116852683C
:102CD000626004BF091821605C60C7E738BD00BFAF
:102CE0009800002070B5CD1C25F0030508350C2D8B
:102CF00038BF0C25002D064601DBA94203D90C2361
:102D00003360002070BD00F07DF8214A1468214630
:102D100091B9204C23681BB9304600F063F820605D
:102D20002946304600F05EF8431C24D10C23336062
:102D3000304600F068F8E4E70B685B1B18D40B2BF7
:102D40000FD90B60CD50CC18304600F05CF804F180
:102D50000B00231D20F00700C31AD3D05A42E250C3
:102D6000D0E78C424B6816BF636013600C46EBE7FC
:102D70000C464968CCE7C41C24F00304A04205D0EB
:102D8000211A304600F02EF80130CFD02560DBE765
:102D9000980000209C000020F8B5074614460E4617
:102DA00021B91146BDE8F840FFF79CBF22B9FFF7F3
:102DB0004BFF25462846F8BD00F026F8A0420FD26A
:102DC00021463846FFF78EFF05460028F2D03146EF
:102DD0002246FFF715FF31463846FFF735FFE9E792
:102DE0003546E7E738B5064C00230546084623601C
:102DF000FDF7A2FF431C02D1236803B12B6038BD4D
:102E00006C0100207047704751F8043C181F002BDC
:102E1000BCBF0B58C0187047F8B500BFF8BC08BC61
:102E20009E467047F8B500BFF8BC08BC9E46704788
:102E3000000000000000000001020304060708096A
:102E400000000000010203045265645F4F4E0A0057
:102E50005265645F4F46460A000000004772656590
:102E60006E5F4F4E0A000000477265656E5F4F4609
:102E7000460A00004F72616E67655F4F4E0A0000A0
:102E80004F72616E67655F4F46460A00426C75651A
:102E90005F4F4E0A00000000426C75655F4F46466A
:102EA0000A00000074656D703A2025642E25640ABE
:102EB00000000000426C75655F4F4E20000000006E
:102EC000426C75655F4F4646200000005265645FA6
:102ED0004F4E20005265645F4F46462000000000C0
:102EE0004F72616E67655F4F4E2000004F72616EDA
:102EF00067655F4F464620004552524F520A000018
:102F0000232D302B2000686C4C00656667454647D2
:102F10000030313233343536373839414243444555
:102F200046003031323334353637383961626364C4
:042F300065660000D2
:082F3400CCD2FF7F0100000078
:042F3C00B5010008D3
:042F400091010008F3
:102F44000024F40001000000100000001000002024
:102F5400000000000000000000000000000000006D
:102F6400000000000000000000000000000000005D
:102F7400000000000000000000000000000000004D
:102F8400000000000000000000000000000000003D
:102F9400000000000000000000000000000000002D
:102FA400000000000000000000000000000000001D
:040000050800255575
:00000001FF
